2025-09-18 10:30:45.123_001 [12345-abcde123:987654321a:1001] [I_BloombergAlgoFix42] (INFO) Receiving : 8=FIX.4.2|9=0189|35=D|49=BLP|56=1TRADING|34=1001|52=20250918-14:30:45|50=TRADER123|57=ULB|60=20250918-14:30:45|1=MS_TRADING|63=0|38=10000|40=1|11=ORD0000001001|15=USD|55=AAPL|75=20250918
2025-09-18 10:30:45.125_456 [12345-abcde123:987654321a:1001] [O_NYSEFix42] (INFO) Sending : 8=FIX.4.2|9=0215|35=D|49=TRADING|56=NYSE|34=500|52=20250918-14:30:45|50=TRADER123|57=ULB|116=John Trader|1=MS_TRADING|11=B_ORD0000001001|15=USD|21=1|22=2|38=10000|40=1|55=AAPL|
2025-09-18 10:30:45.234_567 [67890-bcdef234:987654321b:2501] [O_NYSEFix42] (INFO) Receiving : 8=FIX.4.2|9=0176|35=8|34=2501|49=NYSE|52=20250918-14:30:45.233|56=TRADING|57=TRADER123|1=MS_TRADING|6=0|11=B_ORD0000001001|14=0|17=71250918000123456|20=0|37=NY250109180001|39=0|54=1|55=AAPL|150=0|151=10000
2025-09-18 10:30:45.235_890 [67890-bcdef234:987654321b:2501] [I_BloombergAlgoFix42] (INFO) Sending : 8=FIX.4.2|9=0198|35=8|49=1TRADING|56=BLP|34=1002|52=20250918-14:30:45.234|50=ULB|57=TRADER123|1=MS_TRADING|6=0|11=ORD0000001001|14=0|15=USD|17=71250918000123456|20=0|22=2|31=0|32=0|37=NY250109180001|38=10000|39=0|54=1|55=AAPL|150=0|151=10000
2025-09-18 10:31:15.678_901 [67890-bcdef234:987654322a:2502] [O_NYSEFix42] (INFO) Receiving : 8=FIX.4.2|9=0198|35=8|34=2502|49=NYSE|52=20250918-14:31:15.677|56=TRADING|57=TRADER123|1=MS_TRADING|6=175.25|11=B_ORD0000001001|14=500|17=71250918000123457|20=0|31=175.25|32=500|37=NY250109180001|39=1|54=1|55=AAPL|150=2|151=9500
2025-09-18 10:31:15.680_123 [67890-bcdef234:987654322a:2502] [I_BloombergAlgoFix42] (INFO) Sending : 8=FIX.4.2|9=0220|35=8|49=1TRADING|56=BLP|34=1003|52=20250918-14:31:15.679|50=ULB|57=TRADER123|1=MS_TRADING|6=175.25|11=ORD0000001001|14=500|15=USD|17=71250918000123457|20=0|22=2|31=175.25|32=500|37=NY250109180001|38=10000|39=1|54=1|55=AAPL|150=2|151=9500
2025-09-18 10:32:30.456_789 [12345-abcde123:987654323b:1002] [I_BloombergAlgoFix42] (INFO) Receiving : 8=FIX.4.2|9=0201|35=G|49=BLP|56=1TRADING|34=1002|52=20250918-14:32:30|50=TRADER123|57=ULB|60=20250918-14:32:30|1=MS_TRADING|63=0|38=8000|40=2|11=ORD0000001002|41=ORD0000001001|48= AAPL|55=AAPL|75=20250918
2025-09-18 10:32:30.459_012 [12345-abcde123:987654323b:1002] [O_NYSEFix42] (INFO) Sending : 8=FIX.4.2|9=0227|35=G|49=TRADING|56=NYSE|34=501|52=20250918-14:32:30|50=TRADER123|57=ULB|116=John Trader|1=MS_TRADING|11=B_ORD0000001002|15=USD|21=1|22=2|37=NY250109180001|38=8000|40=2|41=B_ORD0000001001|55=AAPL|
2025-09-18 10:32:30.567_890 [67890-bcdef234:987654324c:2503] [O_NYSEFix42] (INFO) Receiving : 8=FIX.4.2|9=0198|35=8|34=2503|49=NYSE|52=20250918-14:32:30.566|56=TRADING|57=TRADER123|1=MS_TRADING|6=0|11=B_ORD0000001002|14=500|17=71250918000123458|20=0|37=NY250109180002|39=5|54=1|55=AAPL|150=5|151=8000
2025-09-18 10:32:30.569_123 [67890-bcdef234:987654324c:2503] [I_BloombergAlgoFix42] (INFO) Sending : 8=FIX.4.2|9=0220|35=8|49=1TRADING|56=BLP|34=1004|52=20250918-14:32:30.568|50=ULB|57=TRADER123|1=MS_TRADING|6=0|11=ORD0000001002|14=500|15=USD|17=71250918000123458|20=0|22=2|31=0|32=0|37=NY250109180002|38=8000|39=5|54=1|55=AAPL|150=5|151=8000
2025-09-18 10:33:45.123_456 [67890-bcdef234:987654325d:2504] [O_NYSEFix42] (INFO) Receiving : 8=FIX.4.2|9=0201|35=8|34=2504|49=NYSE|52=20250918-14:33:45.122|56=TRADING|57=TRADER123|1=MS_TRADING|6=175.50|11=B_ORD0000001002|14=1500|17=71250918000123459|20=0|31=175.50|32=1000|37=NY250109180002|39=1|54=1|55=AAPL|150=2|151=7000
2025-09-18 10:33:45.125_789 [67890-bcdef234:987654325d:2504] [I_BloombergAlgoFix42] (INFO) Sending : 8=FIX.4.2|9=0223|35=8|49=1TRADING|56=BLP|34=1005|52=20250918-14:33:45.124|50=ULB|57=TRADER123|1=MS_TRADING|6=175.50|11=ORD0000001002|14=1500|15=USD|17=71250918000123459|20=0|22=2|31=175.50|32=1000|37=NY250109180002|38=8000|39=1|54=1|55=AAPL|150=2|151=7000
2025-09-18 10:35:20.987_654 [12345-abcde123:987654326e:1003] [I_BloombergAlgoFix42] (INFO) Receiving : 8=FIX.4.2|9=0201|35=G|49=BLP|56=1TRADING|34=1003|52=20250918-14:35:20|50=TRADER123|57=ULB|60=20250918-14:35:20|1=MS_TRADING|63=0|38=5000|40=2|11=ORD0000001003|41=ORD0000001002|48= AAPL|55=AAPL|75=20250918
2025-09-18 10:35:20.990_987 [12345-abcde123:987654326e:1003] [O_NYSEFix42] (INFO) Sending : 8=FIX.4.2|9=0227|35=G|49=TRADING|56=NYSE|34=502|52=20250918-14:35:20|50=TRADER123|57=ULB|116=John Trader|1=MS_TRADING|11=B_ORD0000001003|15=USD|21=1|22=2|37=NY250109180002|38=5000|40=2|41=B_ORD0000001002|55=AAPL|
2025-09-18 10:35:21.123_456 [67890-bcdef234:987654327f:2505] [O_NYSEFix42] (INFO) Receiving : 8=FIX.4.2|9=0198|35=8|34=2505|49=NYSE|52=20250918-14:35:21.122|56=TRADING|57=TRADER123|1=MS_TRADING|6=0|11=B_ORD0000001003|14=1500|17=71250918000123460|20=0|37=NY250109180003|39=5|54=1|55=AAPL|150=5|151=5000
2025-09-18 10:35:21.125_789 [67890-bcdef234:987654327f:2505] [I_BloombergAlgoFix42] (INFO) Sending : 8=FIX.4.2|9=0220|35=8|49=1TRADING|56=BLP|34=1006|52=20250918-14:35:21.124|50=ULB|57=TRADER123|1=MS_TRADING|6=0|11=ORD0000001003|14=1500|15=USD|17=71250918000123460|20=0|22=2|31=0|32=0|37=NY250109180003|38=5000|39=5|54=1|55=AAPL|150=5|151=5000
2025-09-18 10:36:40.456_123 [67890-bcdef234:987654328g:2506] [O_NYSEFix42] (INFO) Receiving : 8=FIX.4.2|9=0201|35=8|34=2506|49=NYSE|52=20250918-14:36:40.455|56=TRADING|57=TRADER123|1=MS_TRADING|6=175.75|11=B_ORD0000001003|14=3000|17=71250918000123461|20=0|31=175.75|32=1500|37=NY250109180003|39=1|54=1|55=AAPL|150=2|151=3500
2025-09-18 10:36:40.458_456 [67890-bcdef234:987654328g:2506] [I_BloombergAlgoFix42] (INFO) Sending : 8=FIX.4.2|9=0223|35=8|49=1TRADING|56=BLP|34=1007|52=20250918-14:36:40.457|50=ULB|57=TRADER123|1=MS_TRADING|6=175.75|11=ORD0000001003|14=3000|15=USD|17=71250918000123461|20=0|22=2|31=175.75|32=1500|37=NY250109180003|38=5000|39=1|54=1|55=AAPL|150=2|151=3500
2025-09-18 10:38:15.789_012 [12345-abcde123:987654329h:1004] [I_BloombergAlgoFix42] (INFO) Receiving : 8=FIX.4.2|9=0167|35=F|49=BLP|56=1TRADING|34=1004|52=20250918-14:38:15|50=TRADER123|57=ULB|60=20250918-14:38:15|38=5000|40=2|11=ORD0000001004|41=ORD0000001003|48= AAPL|55=AAPL
2025-09-18 10:38:15.792_345 [12345-abcde123:987654329h:1004] [O_NYSEFix42] (INFO) Sending : 8=FIX.4.2|9=0193|35=F|49=TRADING|56=NYSE|34=503|52=20250918-14:38:15|50=TRADER123|57=ULB|116=John Trader|1=MS_TRADING|11=B_ORD0000001004|22=2|37=NY250109180003|38=5000|41=B_ORD0000001003|55=AAPL|
2025-09-18 10:38:15.901_234 [67890-bcdef234:987654330i:2507] [O_NYSEFix42] (INFO) Receiving : 8=FIX.4.2|9=0198|35=8|34=2507|49=NYSE|52=20250918-14:38:15.900|56=TRADING|57=TRADER123|1=MS_TRADING|6=175.75|11=B_ORD0000001004|14=3000|17=71250918000123462|20=0|37=NY250109180004|39=4|54=1|55=AAPL|150=4|151=0
2025-09-18 10:38:15.903_567 [67890-bcdef234:987654330i:2507] [I_BloombergAlgoFix42] (INFO) Sending : 8=FIX.4.2|9=0220|35=8|49=1TRADING|56=BLP|34=1008|52=20250918-14:38:15.902|50=ULB|57=TRADER123|1=MS_TRADING|6=175.75|11=ORD0000001004|14=3000|15=USD|17=71250918000123462|20=0|22=2|31=175.75|32=0|37=NY250109180004|38=5000|39=4|54=1|55=AAPL|150=4|151=0