2026-09-18 09:41:30.187_326 [15583-48bd94d4:985fd603ca:1829] [I_BloombergAlgoFix42] (INFO) Receiving : 8=FIX.4.2|9=0202|35=D|49=BLP|56=1MET|34=1829|52=20250918-13:41:30|50=32646470|57=ULB|60=20250918-13:41:30|1=MS_PB|63=0|38=23818|40=1|11=5DLY0000030001|15=USD|75=20250
2025-09-18 09:41:30.190_864 [15583-48bd94d4:985fd603ca:1829] [O_METClearpoolFix42] (INFO) Sending : 8=FIX.4.2|9=233|35=D|49=ET|56=METCPEX3|34=1302|52=20250918-13:41:30|50=32646470|57=ULB|116=Steven Bardong|1=EISLE-LT|11=B6_5DLY0000030001|15=USD|21=1|22=2|38=23818|40=1|
2025-09-18 09:41:30.193_632 [16926-48bd94e2:985fd603d0:5814] [O_METClearpoolFix42] (INFO) Receiving : 8=FIX.4.2|9=253|35=8|34=5814|49=METCPEX3|52=20250918-13:41:30.192|56=ET|57=32646470|1=EISLE-LT|6=0|11=B6_5DLY0000030001|14=0|17=711250918000206315|20=0|37=205250918000
2025-09-18 09:41:30.194_045 [16926-48bd94e2:985fd603d0:5814] [I_BloombergAlgoFix42] (INFO) Sending : 8=FIX.4.2|9=324|35=8|49=1MET|56=BLP|34=1873|52=20250918-13:41:30.193|50=ULB|57=32646470|1=MS_PB|6=0|11=5DLY0000030001|14=0|15=USD|17=711250918000206315|20=0|22=2|31=0|3
2025-09-18 09:41:30.194_727 [3753] [DC_MET_TO_FLEX_IS_FIX42] (INFO) Sending : 8=FIX.4.2|9=371|35=8|49=DC_MET|56=LINKMIZINT|34=400|52=20250918-13:41:30|50=ULB|57=32646470|1=20012048|6=0|11=5DLY0000030001|14=0|15=USD|17=711250918000206315|20=0|22=2|31=0|32=0|37=205250918
2025-09-18 09:41:30.198_013 [16926-48bd94e2:985fd603d5:5815] [O_METClearpoolFix42] (INFO) Receiving : 8=FIX.4.2|9=302|35=8|34=5815|49=METCPEX3|52=20250918-13:41:30.196|56=ET|57=32646470|1=EISLE-LT|6=28.75|11=B6_5DLY0000030001|14=100|17=205250918000046635|20=0|29=1|30=C
2025-09-18 09:41:30.198_322 [16926-48bd94e2:985fd603d5:5815] [I_BloombergAlgoFix42] (INFO) Sending : 8=FIX.4.2|9=363|35=8|49=1MET|56=BLP|34=1874|52=20250918-13:41:30.197|50=ULB|57=32646470|1=MS_PB|6=28.75|11=5DLY0000030001|14=100|15=USD|17=205250918000046635|20=0|22=2|
2025-09-18 09:41:30.199_188 [3753] [DC_MET_TO_FLEX_IS_FIX42] (INFO) Sending : 8=FIX.4.2|9=410|35=8|49=DC_MET|56=LINKMIZINT|34=401|52=20250918-13:41:30|50=ULB|57=32646470|1=20012048|6=28.75|11=5DLY0000030001|14=100|15=USD|17=205250918000046635|20=0|22=2|29=1|30=CDED|31=
2025-09-18 09:44:46.047_400 [16926-48bd94e2:985fd900de:6715] [O_METClearpoolFix42] (INFO) Receiving : 8=FIX.4.2|9=308|35=8|34=6715|49=METCPEX3|52=20250918-13:44:46.045|56=ET|57=32646470|1=EISLE-LT|6=28.6|11=B6_5DLY0000030001|14=200|17=205250918000054289|20=0|29=1|30=JS
2025-09-18 09:44:46.047_818 [16926-48bd94e2:985fd900de:6715] [I_BloombergAlgoFix42] (INFO) Sending : 8=FIX.4.2|9=369|35=8|49=1MET|56=BLP|34=1894|52=20250918-13:44:46.046|50=ULB|57=32646470|1=MS_PB|6=28.6|11=5DLY0000030001|14=200|15=USD|17=205250918000054289|20=0|22=2|2
2025-09-18 09:44:46.049_200 [3753] [DC_MET_TO_FLEX_IS_FIX42] (INFO) Sending : 8=FIX.4.2|9=416|35=8|49=DC_MET|56=LINKMIZINT|34=425|52=20250918-13:44:46|50=ULB|57=32646470|1=20012048|6=28.6|11=5DLY0000030001|14=200|15=USD|17=205250918000054289|20=0|22=2|29=1|30=JSJX|31=2
2025-09-18 09:45:08.111_287 [16926-48bd94e2:985fd9570e:6876] [O_METClearpoolFix42] (INFO) Receiving : 8=FIX.4.2|9=309|35=8|34=6876|49=METCPEX3|52=20250918-13:45:08.109|56=ET|57=32646470|1=EISLE-LT|6=28.47|11=B6_5DLY0000030001|14=400|17=205250918000054985|20=0|29=1|30=X
2025-09-18 09:45:08.111_729 [16926-48bd94e2:985fd9570e:6876] [I_BloombergAlgoFix42] (INFO) Sending : 8=FIX.4.2|9=370|35=8|49=1MET|56=BLP|34=1901|52=20250918-13:45:08.110|50=ULB|57=32646470|1=MS_PB|6=28.47|11=5DLY0000030001|14=400|15=USD|17=205250918000054985|20=0|22=2|
2025-09-18 09:45:08.112_457 [3753] [DC_MET_TO_FLEX_IS_FIX42] (INFO) Sending : 8=FIX.4.2|9=417|35=8|49=DC_MET|56=LINKMIZINT|34=427|52=20250918-13:45:08|50=ULB|57=32646470|1=20012048|6=28.47|11=5DLY0000030001|14=400|15=USD|17=205250918000054985|20=0|22=2|29=1|30=XNAS|31=
2025-09-18 09:47:07.284_489 [16926-48bd94e2:985fdb2893:7523] [O_METClearpoolFix42] (INFO) Receiving : 8=FIX.4.2|9=310|35=8|34=7523|49=METCPEX3|52=20250918-13:47:07.282|56=ET|57=32646470|1=EISLE-LT|6=28.546|11=B6_5DLY0000030001|14=500|17=205250918000059249|20=0|29=1|30=
2025-09-18 09:47:07.284_917 [16926-48bd94e2:985fdb2893:7523] [I_BloombergAlgoFix42] (INFO) Sending : 8=FIX.4.2|9=371|35=8|49=1MET|56=BLP|34=1910|52=20250918-13:47:07.284|50=ULB|57=32646470|1=MS_PB|6=28.546|11=5DLY0000030001|14=500|15=USD|17=205250918000059249|20=0|22=2
2025-09-18 09:47:07.285_735 [3753] [DC_MET_TO_FLEX_IS_FIX42] (INFO) Sending : 8=FIX.4.2|9=418|35=8|49=DC_MET|56=LINKMIZINT|34=440|52=20250918-13:47:07|50=ULB|57=32646470|1=20012048|6=28.546|11=5DLY0000030001|14=500|15=USD|17=205250918000059249|20=0|22=2|29=1|30=XNAS|31
2025-09-18 09:48:20.665_119 [16926-48bd94e2:985fdc4738:7951] [O_METClearpoolFix42] (INFO) Receiving : 8=FIX.4.2|9=319|35=8|34=7951|49=METCPEX3|52=20250918-13:48:20.663|56=ET|57=32646470|1=EISLE-LT|6=28.55299212598425|11=B6_5DLY0000030001|14=508|17=205250918000061259|20
2025-09-18 09:48:20.665_711 [16926-48bd94e2:985fdc4738:7951] [I_BloombergAlgoFix42] (INFO) Sending : 8=FIX.4.2|9=380|35=8|49=1MET|56=BLP|34=1920|52=20250918-13:48:20.664|50=ULB|57=32646470|1=MS_PB|6=28.55299212598425|11=5DLY0000030001|14=508|15=USD|17=20525091800006125
2025-09-18 09:48:20.665_843 [16926-48bd94e2:985fdc4739:7952] [O_METClearpoolFix42] (INFO) Receiving : 8=FIX.4.2|9=320|35=8|34=7952|49=METCPEX3|52=20250918-13:48:20.663|56=ET|57=32646470|1=EISLE-LT|6=28.56225433526011|11=B6_5DLY0000030001|14=519|17=205250918000061261|20
2025-09-18 09:48:20.666_182 [16926-48bd94e2:985fdc4739:7952] [I_BloombergAlgoFix42] (INFO) Sending : 8=FIX.4.2|9=381|35=8|49=1MET|56=BLP|34=1921|52=20250918-13:48:20.665|50=ULB|57=32646470|1=MS_PB|6=28.56225433526011|11=5DLY0000030001|14=519|15=USD|17=20525091800006126
2025-09-18 09:48:20.666_258 [16926-48bd94e2:985fdc4739:7953] [O_METClearpoolFix42] (INFO) Receiving : 8=FIX.4.2|9=320|35=8|34=7953|49=METCPEX3|52=20250918-13:48:20.663|56=ET|57=32646470|1=EISLE-LT|6=28.57964879852126|11=B6_5DLY0000030001|14=541|17=205250918000061263|20
2025-09-18 09:48:20.666_268 [3753] [DC_MET_TO_FLEX_IS_FIX42] (INFO) Sending : 8=FIX.4.2|9=427|35=8|49=DC_MET|56=LINKMIZINT|34=445|52=20250918-13:48:20|50=ULB|57=32646470|1=20012048|6=28.55299212598425|11=5DLY0000030001|14=508|15=USD|17=205250918000061259|20=0|22=2|29=1
2025-09-18 09:48:20.666_497 [16926-48bd94e2:985fdc4739:7953] [I_BloombergAlgoFix42] (INFO) Sending : 8=FIX.4.2|9=381|35=8|49=1MET|56=BLP|34=1922|52=20250918-13:48:20.665|50=ULB|57=32646470|1=MS_PB|6=28.57964879852126|11=5DLY0000030001|14=541|15=USD|17=20525091800006126
2025-09-18 09:48:20.666_564 [16926-48bd94e2:985fdc4739:7954] [O_METClearpoolFix42] (INFO) Receiving : 8=FIX.4.2|9=308|35=8|34=7954|49=METCPEX3|52=20250918-13:48:20.663|56=ET|57=32646470|1=EISLE-LT|6=28.62|11=B6_5DLY0000030001|14=600|17=205250918000061265|20=0|29=1|30=X
2025-09-18 09:48:20.666_762 [16926-48bd94e2:985fdc4739:7954] [I_BloombergAlgoFix42] (INFO) Sending : 8=FIX.4.2|9=369|35=8|49=1MET|56=BLP|34=1923|52=20250918-13:48:20.665|50=ULB|57=32646470|1=MS_PB|6=28.62|11=5DLY0000030001|14=600|15=USD|17=205250918000061265|20=0|22=2|
2025-09-18 09:48:20.667_431 [3753] [DC_MET_TO_FLEX_IS_FIX42] (INFO) Sending : 8=FIX.4.2|9=428|35=8|49=DC_MET|56=LINKMIZINT|34=446|52=20250918-13:48:20|50=ULB|57=32646470|1=20012048|6=28.56225433526011|11=5DLY0000030001|14=519|15=USD|17=205250918000061261|20=0|22=2|29=1
2025-09-18 09:48:20.667_504 [3753] [DC_MET_TO_FLEX_IS_FIX42] (INFO) Sending : 8=FIX.4.2|9=428|35=8|49=DC_MET|56=LINKMIZINT|34=447|52=20250918-13:48:20|50=ULB|57=32646470|1=20012048|6=28.57964879852126|11=5DLY0000030001|14=541|15=USD|17=205250918000061263|20=0|22=2|29=1
2025-09-18 09:48:20.667_550 [3753] [DC_MET_TO_FLEX_IS_FIX42] (INFO) Sending : 8=FIX.4.2|9=416|35=8|49=DC_MET|56=LINKMIZINT|34=448|52=20250918-13:48:20|50=ULB|57=32646470|1=20012048|6=28.62|11=5DLY0000030001|14=600|15=USD|17=205250918000061265|20=0|22=2|29=1|30=XNAS|31=
2025-09-18 09:49:20.293_086 [15583-48bd94d4:985fdd3024:1845] [I_BloombergAlgoFix42] (INFO) Receiving : 8=FIX.4.2|9=0233|35=G|49=BLP|56=1MET|34=1845|52=20250918-13:49:20|50=32646470|57=ULB|60=20250918-13:49:20|1=MS_PB|63=0|38=23818|40=2|11=5DLY000003000B|41=5DLY00000300
2025-09-18 09:49:20.295_442 [15583-48bd94d4:985fdd3024:1845] [O_METClearpoolFix42] (INFO) Sending : 8=FIX.4.2|9=289|35=G|49=ET|56=METCPEX3|34=1340|52=20250918-13:49:20|50=32646470|57=ULB|116=Steven Bardong|1=EISLE-LT|11=B6_5DLY000003000B|15=USD|21=1|22=2|37=20525091800
2025-09-18 09:49:20.297_916 [16926-48bd94e2:985fdd3029:8311] [O_METClearpoolFix42] (INFO) Receiving : 8=FIX.4.2|9=286|35=8|34=8311|49=METCPEX3|52=20250918-13:49:20.296|56=ET|57=32646470|1=EISLE-LT|6=28.62|11=B6_5DLY000003000B|14=600|17=711250918000311030|20=0|37=205250
2025-09-18 09:49:20.298_401 [16926-48bd94e2:985fdd3029:8311] [I_BloombergAlgoFix42] (INFO) Sending : 8=FIX.4.2|9=354|35=8|49=1MET|56=BLP|34=1934|52=20250918-13:49:20.297|50=ULB|57=32646470|1=MS_PB|6=28.62|11=5DLY000003000B|14=600|15=USD|17=711250918000311030|20=0|22=2|
2025-09-18 09:49:20.299_397 [3753] [DC_MET_TO_FLEX_IS_FIX42] (INFO) Sending : 8=FIX.4.2|9=401|35=8|49=DC_MET|56=LINKMIZINT|34=456|52=20250918-13:49:20|50=ULB|57=32646470|1=20012048|6=28.62|11=5DLY000003000B|14=600|15=USD|17=711250918000311030|20=0|22=2|31=0|32=0|37=205
2025-09-18 09:49:20.302_335 [16926-48bd94e2:985fdd302d:8312] [O_METClearpoolFix42] (INFO) Receiving : 8=FIX.4.2|9=315|35=8|34=8312|49=METCPEX3|52=20250918-13:49:20.300|56=ET|57=32646470|1=EISLE-LT|6=28.72|11=B6_5DLY000003000B|14=700|17=205250918000063197|20=0|29=1|30=X
2025-09-18 09:49:20.302_739 [16926-48bd94e2:985fdd302d:8312] [I_BloombergAlgoFix42] (INFO) Sending : 8=FIX.4.2|9=376|35=8|49=1MET|56=BLP|34=1935|52=20250918-13:49:20.301|50=ULB|57=32646470|1=MS_PB|6=28.72|11=5DLY000003000B|14=700|15=USD|17=205250918000063197|20=0|22=2|
2025-09-18 09:49:20.303_761 [3753] [DC_MET_TO_FLEX_IS_FIX42] (INFO) Sending : 8=FIX.4.2|9=423|35=8|49=DC_MET|56=LINKMIZINT|34=457|52=20250918-13:49:20|50=ULB|57=32646470|1=20012048|6=28.72|11=5DLY000003000B|14=700|15=USD|17=205250918000063197|20=0|22=2|29=1|30=XBOS|31=
2025-09-18 09:50:19.545_699 [15583-48bd94d4:985fde1798:1847] [I_BloombergAlgoFix42] (INFO) Receiving : 8=FIX.4.2|9=0233|35=G|49=BLP|56=1MET|34=1847|52=20250918-13:50:19|50=32646470|57=ULB|60=20250918-13:50:19|1=MS_PB|63=0|38=23818|40=2|11=5DLY000003000E|41=5DLY00000300
2025-09-18 09:50:19.546_374 [15583-48bd94d4:985fde1798:1847] [O_METClearpoolFix42] (INFO) Sending : 8=FIX.4.2|9=289|35=G|49=ET|56=METCPEX3|34=1346|52=20250918-13:50:19|50=32646470|57=ULB|116=Steven Bardong|1=EISLE-LT|11=B6_5DLY000003000E|15=USD|21=1|22=2|37=20525091800
2025-09-18 09:51:27.902_268 [16926-48bd94e2:985fdf229d:8962] [O_METClearpoolFix42] (INFO) Receiving : 8=FIX.4.2|9=317|35=8|34=8962|49=METCPEX3|52=20250918-13:51:27.900|56=ET|57=32646470|1=EISLE-LT|6=28.7625|11=B6_5DLY000003000B|14=800|17=205250918000068055|20=0|29=1|30
2025-09-18 09:51:27.902_668 [16926-48bd94e2:985fdf229d:8962] [I_BloombergAlgoFix42] (INFO) Sending : 8=FIX.4.2|9=378|35=8|49=1MET|56=BLP|34=1952|52=20250918-13:51:27.901|50=ULB|57=32646470|1=MS_PB|6=28.7625|11=5DLY000003000B|14=800|15=USD|17=205250918000068055|20=0|22=
2025-09-18 09:51:27.904_074 [3753] [DC_MET_TO_FLEX_IS_FIX42] (INFO) Sending : 8=FIX.4.2|9=425|35=8|49=DC_MET|56=LINKMIZINT|34=466|52=20250918-13:51:27|50=ULB|57=32646470|1=20012048|6=28.7625|11=5DLY000003000B|14=800|15=USD|17=205250918000068055|20=0|22=2|29=1|30=XNAS|3
2025-09-18 09:51:42.546_279 [15583-48bd94d4:985fdf5bd1:1850] [I_BloombergAlgoFix42] (INFO) Receiving : 8=FIX.4.2|9=0233|35=G|49=BLP|56=1MET|34=1850|52=20250918-13:51:42|50=32646470|57=ULB|60=20250918-13:51:42|1=MS_PB|63=0|38=23818|40=2|11=5DLY000003000H|41=5DLY00000300
2025-09-18 09:51:42.546_963 [15583-48bd94d4:985fdf5bd1:1850] [O_METClearpoolFix42] (INFO) Sending : 8=FIX.4.2|9=289|35=G|49=ET|56=METCPEX3|34=1354|52=20250918-13:51:42|50=32646470|57=ULB|116=Steven Bardong|1=EISLE-LT|11=B6_5DLY000003000H|15=USD|21=1|22=2|37=20525091800
2025-09-18 09:51:42.550_423 [16926-48bd94e2:985fdf5bd5:9052] [O_METClearpoolFix42] (INFO) Receiving : 8=FIX.4.2|9=288|35=8|34=9052|49=METCPEX3|52=20250918-13:51:42.548|56=ET|57=32646470|1=EISLE-LT|6=28.7625|11=B6_5DLY000003000H|14=800|17=711250918000340240|20=0|37=2052
2025-09-18 09:51:42.550_870 [16926-48bd94e2:985fdf5bd5:9052] [I_BloombergAlgoFix42] (INFO) Sending : 8=FIX.4.2|9=356|35=8|49=1MET|56=BLP|34=1953|52=20250918-13:51:42.550|50=ULB|57=32646470|1=MS_PB|6=28.7625|11=5DLY000003000H|14=800|15=USD|17=711250918000340240|20=0|22=
2025-09-18 09:51:42.551_295 [3753] [DC_MET_TO_FLEX_IS_FIX42] (INFO) Sending : 8=FIX.4.2|9=403|35=8|49=DC_MET|56=LINKMIZINT|34=467|52=20250918-13:51:42|50=ULB|57=32646470|1=20012048|6=28.7625|11=5DLY000003000H|14=800|15=USD|17=711250918000340240|20=0|22=2|31=0|32=0|37=2
2025-09-18 09:51:51.832_484 [16926-48bd94e2:985fdf8017:9110] [O_METClearpoolFix42] (INFO) Receiving : 8=FIX.4.2|9=324|35=8|34=9110|49=METCPEX3|52=20250918-13:51:51.830|56=ET|57=32646470|1=EISLE-LT|6=28.78888888888889|11=B6_5DLY000003000H|14=900|17=205250918000069075|20
2025-09-18 09:51:51.832_885 [16926-48bd94e2:985fdf8017:9110] [I_BloombergAlgoFix42] (INFO) Sending : 8=FIX.4.2|9=385|35=8|49=1MET|56=BLP|34=1955|52=20250918-13:51:51.832|50=ULB|57=32646470|1=MS_PB|6=28.78888888888889|11=5DLY000003000H|14=900|15=USD|17=20525091800006907
2025-09-18 09:51:51.833_641 [3753] [DC_MET_TO_FLEX_IS_FIX42] (INFO) Sending : 8=FIX.4.2|9=432|35=8|49=DC_MET|56=LINKMIZINT|34=469|52=20250918-13:51:51|50=ULB|57=32646470|1=20012048|6=28.78888888888889|11=5DLY000003000H|14=900|15=USD|17=205250918000069075|20=0|22=2|29=1
2025-09-18 09:54:55.353_721 [16926-48bd94e2:985fe24cf8:10022] [O_METClearpoolFix42] (INFO) Receiving : 8=FIX.4.2|9=328|35=8|34=10022|49=METCPEX3|52=20250918-13:54:55.352|56=ET|57=32646470|1=EISLE-LT|6=28.82762645914397|11=B6_5DLY000003000H|14=1028|17=205250918000076139
2025-09-18 09:54:55.354_207 [16926-48bd94e2:985fe24cf8:10022] [I_BloombergAlgoFix42] (INFO) Sending : 8=FIX.4.2|9=388|35=8|49=1MET|56=BLP|34=1975|52=20250918-13:54:55.353|50=ULB|57=32646470|1=MS_PB|6=28.82762645914397|11=5DLY000003000H|14=1028|15=USD|17=205250918000076
2025-09-18 09:54:55.354_288 [16926-48bd94e2:985fe24cf9:10023] [O_METClearpoolFix42] (INFO) Receiving : 8=FIX.4.2|9=327|35=8|34=10023|49=METCPEX3|52=20250918-13:54:55.352|56=ET|57=32646470|1=EISLE-LT|6=28.84545454545454|11=B6_5DLY000003000H|14=1100|17=205250918000076141
2025-09-18 09:54:55.354_495 [16926-48bd94e2:985fe24cf9:10023] [I_BloombergAlgoFix42] (INFO) Sending : 8=FIX.4.2|9=387|35=8|49=1MET|56=BLP|34=1976|52=20250918-13:54:55.353|50=ULB|57=32646470|1=MS_PB|6=28.84545454545454|11=5DLY000003000H|14=1100|15=USD|17=205250918000076
2025-09-18 09:54:55.354_741 [3753] [DC_MET_TO_FLEX_IS_FIX42] (INFO) Sending : 8=FIX.4.2|9=435|35=8|49=DC_MET|56=LINKMIZINT|34=480|52=20250918-13:54:55|50=ULB|57=32646470|1=20012048|6=28.82762645914397|11=5DLY000003000H|14=1028|15=USD|17=205250918000076139|20=0|22=2|29=
2025-09-18 09:54:55.354_853 [3753] [DC_MET_TO_FLEX_IS_FIX42] (INFO) Sending : 8=FIX.4.2|9=434|35=8|49=DC_MET|56=LINKMIZINT|34=481|52=20250918-13:54:55|50=ULB|57=32646470|1=20012048|6=28.84545454545454|11=5DLY000003000H|14=1100|15=USD|17=205250918000076141|20=0|22=2|29=
2025-09-18 09:58:43.687_847 [16926-48bd94e2:985fe5c8e7:11077] [O_METClearpoolFix42] (INFO) Receiving : 8=FIX.4.2|9=326|35=8|34=11077|49=METCPEX3|52=20250918-13:58:43.686|56=ET|57=32646470|1=EISLE-LT|6=28.86923076923077|11=B6_5DLY000003000H|14=1300|17=205250918000081857
2025-09-18 09:58:43.688_342 [16926-48bd94e2:985fe5c8e7:11077] [I_BloombergAlgoFix42] (INFO) Sending : 8=FIX.4.2|9=386|35=8|49=1MET|56=BLP|34=2010|52=20250918-13:58:43.687|50=ULB|57=32646470|1=MS_PB|6=28.86923076923077|11=5DLY000003000H|14=1300|15=USD|17=205250918000081
2025-09-18 09:58:43.689_647 [3753] [DC_MET_TO_FLEX_IS_FIX42] (INFO) Sending : 8=FIX.4.2|9=433|35=8|49=DC_MET|56=LINKMIZINT|34=503|52=20250918-13:58:43|50=ULB|57=32646470|1=20012048|6=28.86923076923077|11=5DLY000003000H|14=1300|15=USD|17=205250918000081857|20=0|22=2|29=
2025-09-18 10:00:47.305_679 [16926-48bd94e2:985fe7abc8:11716] [O_METClearpoolFix42] (INFO) Receiving : 8=FIX.4.2|9=328|35=8|34=11716|49=METCPEX3|52=20250918-14:00:47.304|56=ET|57=32646470|1=EISLE-LT|6=28.92666666666667|11=B6_5DLY000003000H|14=1500|17=205250918000088791
2025-09-18 10:00:47.306_161 [16926-48bd94e2:985fe7abc8:11716] [I_BloombergAlgoFix42] (INFO) Sending : 8=FIX.4.2|9=388|35=8|49=1MET|56=BLP|34=2024|52=20250918-14:00:47.305|50=ULB|57=32646470|1=MS_PB|6=28.92666666666667|11=5DLY000003000H|14=1500|15=USD|17=205250918000088
2025-09-18 10:00:47.307_162 [3753] [DC_MET_TO_FLEX_IS_FIX42] (INFO) Sending : 8=FIX.4.2|9=435|35=8|49=DC_MET|56=LINKMIZINT|34=512|52=20250918-14:00:47|50=ULB|57=32646470|1=20012048|6=28.92666666666667|11=5DLY000003000H|14=1500|15=USD|17=205250918000088791|20=0|22=2|29=
2025-09-18 10:01:52.573_911 [16926-48bd94e2:985fe8aabd:11935] [O_METClearpoolFix42] (INFO) Receiving : 8=FIX.4.2|9=321|35=8|34=11935|49=METCPEX3|52=20250918-14:01:52.572|56=ET|57=32646470|1=EISLE-LT|6=28.959375|11=B6_5DLY000003000H|14=1600|17=205250918000092689|20=0|29
2025-09-18 10:01:52.574_336 [16926-48bd94e2:985fe8aabd:11935] [I_BloombergAlgoFix42] (INFO) Sending : 8=FIX.4.2|9=381|35=8|49=1MET|56=BLP|34=2027|52=20250918-14:01:52.573|50=ULB|57=32646470|1=MS_PB|6=28.959375|11=5DLY000003000H|14=1600|15=USD|17=205250918000092689|20=0
2025-09-18 10:01:52.575_250 [3753] [DC_MET_TO_FLEX_IS_FIX42] (INFO) Sending : 8=FIX.4.2|9=428|35=8|49=DC_MET|56=LINKMIZINT|34=515|52=20250918-14:01:52|50=ULB|57=32646470|1=20012048|6=28.959375|11=5DLY000003000H|14=1600|15=USD|17=205250918000092689|20=0|22=2|29=1|30=XNA
2025-09-18 10:03:29.212_859 [15583-48bd94d4:985fea243c:1874] [I_BloombergAlgoFix42] (INFO) Receiving : 8=FIX.4.2|9=0190|35=F|49=BLP|56=1MET|34=1874|52=20250918-14:03:29|50=32646470|57=ULB|60=20250918-14:03:29|38=23818|40=2|11=5DLY000003000P|41=5DLY000003000H|48=BRXYZ91
2025-09-18 10:03:29.213_481 [15583-48bd94d4:985fea243c:1874] [O_METClearpoolFix42] (INFO) Sending : 8=FIX.4.2|9=231|35=F|49=ET|56=METCPEX3|34=1410|52=20250918-14:03:29|50=32646470|57=ULB|116=Steven Bardong|1=20012048|11=B6_5DLY000003000P|22=2|37=205250918000046629|38=2
2025-09-18 10:03:29.214_935 [16926-48bd94e2:985fea243e:12402] [O_METClearpoolFix42] (INFO) Receiving : 8=FIX.4.2|9=288|35=8|34=12402|49=METCPEX3|52=20250918-14:03:29.213|56=ET|57=32646470|1=EISLE-LT|6=28.959375|11=B6_5DLY000003000P|14=1600|17=711250918000466971|20=0|37
2025-09-18 10:03:29.215_283 [16926-48bd94e2:985fea243e:12402] [I_BloombergAlgoFix42] (INFO) Sending : 8=FIX.4.2|9=355|35=8|49=1MET|56=BLP|34=2051|52=20250918-14:03:29.214|50=ULB|57=32646470|1=MS_PB|6=28.959375|11=5DLY000003000P|14=1600|15=USD|17=711250918000466971|20=0
2025-09-18 10:03:29.216_566 [3753] [DC_MET_TO_FLEX_IS_FIX42] (INFO) Sending : 8=FIX.4.2|9=384|35=8|49=DC_MET|56=LINKMIZINT|34=529|52=20250918-14:03:29|50=ULB|57=32646470|1=20012048|6=28.959375|11=5DLY000003000H|14=1600|15=USD|17=711250918000466971|20=0|22=2|31=0|32=0|3